:020000040800F2
:10000000A8CD01209D010008691A00085D0A0008BA
:100010004D0D0008110A00086D3E000800000000A8
:10002000000000000000000000000000392F000860
:10003000150A0008000000006D1A0008F9320008D7
:10004000B7010008B7010008B7010008B7010008B0
:10005000B7010008B7010008190A0008B701000835
:10006000B7010008B7010008B7010008B701000890
:10007000B7010008B7010008B7010008B701000880
:10008000B7010008B7010008B7010008B701000870
:10009000B7010008B7010008B7010008B701000860
:1000A000B7010008B7010008B7010008B701000850
:1000B000B7010008B7010008B7010008B701000840
:1000C000B7010008B7010008B7010008B701000830
:1000D000B7010008013E0008B7010008B701000899
:1000E000B7010008B7010008B7010008B701000810
:1000F000B7010008B7010008B7010008B701000800
:10010000B7010008B7010008B7010008B7010008EF
:10011000B7010008B7010008B7010008B7010008DF
:10012000B7010008B7010008B7010008B7010008CF
:10013000B7010008B7010008B7010008B7010008BF
:10014000B7010008B7010008B7010008B7010008AF
:10015000B7010008B7010008B7010008B70100089F
:10016000B7010008B7010008B7010008B70100088F
:10017000B7010008B7010008B7010008000000003F
:10018000B7010008B7010008DFF80CD000F0F8FA5A
:100190000048004711680008A8CD012006488047A4
:1001A00006480047FEE7FEE7FEE7FEE7FEE7FEE75C
:1001B000FEE7FEE7FEE7FEE73D33000889010008A1
:1001C0002DE9F05F0546002092469B46884606468C
:1001D000814640241BE0284641464746224600F01F
:1001E000C8F853465A46C01A914110D311461846D2
:1001F000224600F0AFF82D1A67EB01084F46224661
:100200000120002100F0A6F817EB00094E41201E46
:10021000A4F10104DFDC484631462A464346BDE8E6
:10022000F09F000000487047609A000810B5431A1C
:10023000934209D28318881803E010F8011D03F8CF
:10024000011D521EF9D210BD40EA01039B0703D0E5
:1002500009E008C9121F08C0042AFAD203E011F805
:10026000013B00F8013B521EF9D210BDD2B201E0B1
:1002700000F8012B491EFBD270470022F6E710B5AB
:1002800013460A4604461946FFF7F0FF204610BD04
:1002900010B5044604E00B7800F8013B03B1491C9B
:1002A000521EF8D2204610BD421C10F8011B002936
:1002B000FBD1801A704710B5002200E0521C835C0D
:1002C0008C5CA34201D1002BF8D1D8B2E1B2401A24
:1002D00010BD034611F8012B00F8012B002AF9D1BB
:1002E000184670472DE9F0410E460546002400E00F
:1002F000641C285D00F04DF80746305D00F049F8B9
:10030000381A02D1295D0029F2D1BDE8F08170B51B
:10031000064608F0EBFE046805460A220021304636
:1003200000F03DF82C6070BD30B50B460146002052
:100330002022012409E021FA02F59D4205D303FAA7
:1003400002F5491B04FA02F52844151EA2F1010228
:10035000F1DC30BD202A04DB203A00FA02F1002053
:1003600070479140C2F1200320FA03F319439040F3
:100370007047202A04DB203A21FA02F0002170475E
:1003800021FA02F3D040C2F12002914008431946FD
:100390007047A0F14101192900D8203070472DE99C
:1003A000F04791460F4680460446002614F8015B4C
:1003B0002DB1FFF737FF0068405DC007F6D12B2D48
:1003C00002D02D2D18D0641E4A463946204600F032
:1003D00001FA27B13968A14201D1C7F8008071053F
:1003E0004FF002040BD54042002803DD08F07EFEEA
:1003F0000460A007BDE8F08746F48066E4E70028C3
:10040000F8DA08F073FE04606FF00040F2E72DE9BF
:10041000FE4F804681EA0300C00F0C46009021F099
:10042000004123F00045B8EB0200A94105D2404647
:10043000214690461C460B46024623F000401043DE
:1004400047D0270DC7F30A00C3F30A510290401AA0
:10045000019040286BDAC3F3130040F4801B00982E
:10046000924620B10023D2EB030A63EB0B0B0198F9
:100470005946C0F140025046FFF76CFF06460D4654
:1004800050465946019A00F093F910EB080061417B
:10049000002487EA115284EAE7731A4340D0009A95
:1004A00062B3019A012A4FEA075215DC001B61EB87
:1004B00002014FF0004202EA0752CDE90042001C5F
:1004C00041F5801132462B4600F0E2F903B0BDE859
:1004D000F08F40462146F9E7001B61EB0201001C4A
:1004E00041F5801300185B412018A2F5001747EB77
:1004F000030140EAD570B6196D4111E06D084FEA6D
:10050000360645EAC0754FEA0752001B61EB02014F
:10051000001C41F5801149084FEA30000019514193
:1005200032462B4603B0BDE8F04F00F0A2B9009868
:10053000012240000023D0EB020263EBE07300983D
:1005400021464FEAE074B8EB000061EB0401E9E7F3
:1005500083F000435BE781F0004158E72DE9FE4F4F
:1005600081EA030404F0004421F0004100944FF0BC
:10057000000B23F0004350EA01045ED052EA03046A
:100580005BD0C3F30A54C1F30A552C44A4F2F334EC
:100590000194A0FB0254C1F3130141F48011C3F391
:1005A000130343F4801301FB024400FB034E840A4F
:1005B000970A44EA815447EA8357A4FB07680295E7
:1005C0008D0A05FB07854FEA932C04FB0C54270585
:1005D000029D4FEA065847EA1637B5EB08056EEB61
:1005E000070C870E920E47EA811742EA8312A7FB97
:1005F0000201B6EB0B0164EB00042B0D43EA0C3354
:100600005E1844EB1C50DA465146E7FB0201C5F385
:1006100013044FEA0B3343EA14534FEA0432019CAC
:1006200043EA0603A4F10C040294009CCDE900B453
:1006300000F02EF903B0BDE8F08F00200146F9E785
:100640002DE9F04D81EA030404F0004B21F0004550
:1006500014464FF0000A23F0004150EA050220D072
:1006600054EA01021DD0C5F30A570246C5F313032D
:10067000C1F31300C1F30A5640F4801543F480130C
:10068000A7EB0608101BD64608F2FD3873EB0500F1
:1006900002D308F1010801E092185B41B8F1000FA4
:1006A00003DA00200146BDE8F08D00204FF48011F0
:1006B000064684460EE0171B73EB050705D3121B95
:1006C00063EB050306434CEA010C49084FEA30008E
:1006D00092185B4150EA0107EDD152EA030012D0B3
:1006E00082EA040083EA0501084305D0101BAB41F0
:1006F00006D20122002306E000224FF0004302E070
:100700006FF0010253101AEB06004CEB085110EB8E
:100710000A0041EB0B01BDE8F04D00F0AAB8C1F3AF
:100720000A52C1F3130140F2FF3341F480119A429F
:1007300002DA00200146704740F233439A42A2F2A7
:10074000334202DC5242FFF714BEFFF703BE000043
:1007500030B5041E71F1000404DB4FF00044404248
:1007600064EB0101141E73F1000405DB1C464FF01D
:100770000043524263EB0403994208BF904230BDEC
:100780001CB509480090094801900546009C06E008
:10079000E06840F0010394E8070098471034AC4249
:1007A000F6D3FFF7F5FC000000AB000820AB000813
:1007B000202A06DBCB17203A41FA02F043EAE07325
:1007C00006E041FA02F3D040C2F120029140084312
:1007D000194670472DE9F05F8246007800271546DC
:1007E0008B460AF10104B946302801D09DB113E0CF
:1007F00014F8010B0127782803D0582801D045B1FF
:100800000AE00DB1102D07D10027102514F8010BB7
:1008100002E0082500E00A250026B0460EE005FBB0
:10082000080005FB06F1012701EB10461FFA80F8CE
:10083000B6F5803F00D3B94614F8010B294600F005
:1008400075F80028EBDABBF1000F05D00FB1641E7C
:1008500000E05446CBF80040B9F1000F06D008F094
:1008600045FC02210160C81EBDE8F09F48EA064031
:10087000FAE710B5141E73F1000408DA401C41F1C8
:10088000000192185B411A4301D120F0010010BD14
:100890002DE9F04D92469B4611B1B1FA81F202E08A
:1008A000B0FA80F220329046FFF754FD04460F461E
:1008B00040EA0A0041EA0B0153465A46084313D066
:1008C000114653EA010019D0C8F140025046FFF723
:1008D00050FD05460E46504659464246FFF73AFD42
:1008E000084305D0012004E020463946BDE8F08DDC
:1008F0000020054346EAE0762C4337430A98630517
:10090000E40AA0EB08000022FD0A44EA47540A303A
:1009100002D500200146E9E7010510196941DDE92A
:10092000084500196941BDE8F04DA2E73A2800D218
:10093000303820F02002412A01D3A2F1370088424A
:1009400001D34FF0FF307047B0B582B000F03CFFEC
:1009500040F63C04C2F20004206820B100F03EFFE3
:10096000002002B0B0BD40F2B415C2F20005286804
:1009700018B900F09FFA286008B300F02FFF20207C
:10098000842102F06DF9206080B10220009040F6D1
:10099000D510C0F600000DA14FF48062002302F0D4
:1009A00091FD0146002021B102B0B0BD00202860B9
:1009B00007E02068002502F081F9256001E000F0E1
:1009C0000DFF4FF0FF3002B0B0BD00BF4173796E34
:1009D00063494F00A2B001AC40F63C07251DC2F2AE
:1009E000000700BF386821464FF0FF3202F08CF953
:1009F0000028F7D0019E002EF4D02846FFF754FCC3
:100A0000024630462946002302F068FCEAE700006F
:100A1000FEE70000FEE7000080B582B0012005F08F
:100A200083FBC8B1012005F079FB40F20820C2F237
:100A3000000000680021019110B101A902F05CFFE3
:100A400040F20C20C2F20000006810B101A902F0CF
:100A5000DFFA019800F04CFF02B080BD1EF0040FD9
:100A60000CBFEFF30880EFF3098000F001B800003D
:100A7000044600F0ADFF20B10320214600F080FFC6
:100A800002E0204601F0FAF8FEE700002DE9F0410F
:100A90004FF0000698B340F21825C2F20005074651
:100AA00095F8640058B31446884600F08DFE05F1B1
:100AB0001901002011F8182B22B101300428F9D1B6
:100AC0004FF0FF30411C17D000EB400005EBC00693
:100AD00046F8047F86F804804CB1207838B1701D48
:100AE00021460F22FFF7D4FB0020307501E00020E3
:100AF00070710120707500E0002600F06FFE304636
:100B0000BDE8F08140F21820C2F200000078704782
:100B1000B0B540F21824C2F2000494F8640008B1A1
:100B20000020B0BD20466821FFF7A7FB40F28025DA
:100B3000C2F2000528680421217018B900F0BAF942
:100B4000286020B1012084F864000020B0BD4FF07F
:100B5000FF30B0BD81B02DE9F04F88B0002A06917A
:100B6000119300F09B8005460698002800F09680BF
:100B700040F2182BC2F2000B9BF86400002800F032
:100B80008D8040F28026C2F200063068144628B1FB
:100B900000F01EFF10B1306800F0A0F902F072FE04
:100BA00002F07CFE40A1002818BF0146681E059196
:100BB000C0B203289ABF3DA151F820603F2600F043
:100BC00021FD8DE84300059840F21006C2F20006B0
:100BD000069B039039A230464FF48071049308F0CD
:100BE00051FA80F3080711ABF019C7F5807122465E
:100BF000079300F08FFC20EAE0703844FD2804D809
:100C000030440A2100F8011B04E00A2086F8FE00A7
:100C100006F1FF0040F210064FF000080FF2B00A94
:100C2000C2F2000680F8008005E000BF08F1180855
:100C3000B8F1600F26D000F0C7FD0BEB0807787EF7
:100C400010B1387A854201D9012711E0B94619F867
:100C5000090F58B106994846FFF72DFB30B10599A9
:100C60004846FFF728FB0028EED100BF7C6800272C
:100C700000F0B4FD002FD9D120465146324600F095
:100C800045FAD3E740F28024C2F20004206828B17C
:100C900000F09EFE10B1206800F0BCF908B0BDE87D
:100CA000F04F01B0704700BF3F3F3F0045000000DC
:100CB0005700000049000000440000005B256C6CF8
:100CC000755D5B25635D5B25735D5B25735D200052
:100CD00025730000B0B5044600284FF0FF3025D042
:100CE00040F21825C2F2000595F86410002908BFEB
:100CF000B0BD00F069FD6FF0130000BF1830291877
:100D0000A14203D04C28F9D101250CE0607D38B117
:100D10000025A582C4E90055C4E90255256102E019
:100D2000B0FA80F0450900F059FD6842B0BD0000FE
:100D300010B5044600F048FD40F21820C2F2000051
:100D40000470BDE8104000F049BD0000FEE700005F
:100D5000002808BF704710B5044600F035FD4FF479
:100D6000DC30206040F2A81040F28821C2F200007E
:100D7000C2F2000100680968C4E90101BDE8104041
:100D800000F02CBD40F29411C2F20001002818BFFF
:100D900000F140010868704770B5054600284FF023
:100DA000FF304ED00C46002908BF70BD00F00CFD8E
:100DB000E86DC4E9005095F830002072A88FA4F8BF
:100DC000090040F6E800C2F200000168B5F8606072
:100DD000A9424FEA8601E1600CD0002300F57C7245
:100DE00019463F2B08D050F8103FAB4201F10103E8
:100DF000F6D102E0002204E0104600223E2988BF1E
:100E00000122002A0EBFD0E9020100200021AD6BB3
:100E1000C4E9060100F0E2FC4FF0000065B14FF0BC
:100E2000000156B155F82120B2F1A53F05D101319D
:100E30008E42F7D1314600E00021711A890021610C
:100E4000206270BD10B588B30446006870B340F6E8
:100E5000E800C2F200004FF48061FFF70EFA20684C
:100E600040F2FC14C2F20004206000F0ADFC40F23D
:100E7000A810C2F20000006840F28821002808BFD4
:100E80004FF4DC302268C2F200010860904740F263
:100E90001421C2F20001086000F0A0FC46F689109F
:100EA000C0F60000BDE8104000F032BD4FF0FF304A
:100EB00010BD000010B5142000F0C4FB002808BFCE
:100EC00010BD00210160C0E90111016100F10C01B8
:100ED0000446084605F0A0F8204610BD4FF0FF314B
:100EE00000F028B8B0B5044600F06EFC206840F26F
:100EF000A015C2F2000518B160682968884212D0B6
:100F000000F06CFC20464FF0FF3100F013F800F0C9
:100F10005BFC60682968884203D0BDE8B04000F0FF
:100F20005DBC012001E0206901302061BDE8B040D6
:100F300000F054BC2DE9F04F81B040F2A0160D46F0
:100F4000044600F10C0BC2F200064FF003094FF00B
:100F5000000A4F1C05E000BF00204FF001080028E8
:100F600054D000F031FC2068002841D0002D49D039
:100F7000606840B1316890F83C2091F83C10914293
:100F800088BF07F0D3FD306890F83C0005F0DCF82E
:100F9000316806F093FD3168584681F8309005F0CD
:100FA0003FF83068C0F810A0C0F814A04FB100F0AE
:100FB00029FB4219306841F10001C0E9042103F026
:100FC00039FA00F00BFC00F087FC61683068814260
:100FD000C2D0006D50B100F0F7FB306805F03AF870
:100FE00000F0FCFB4FF000080020B8E70120B6E756
:100FF0004FF00108C4F800803068416D4465C4E9D1
:10100000010101E04FF0000800F0E8FB404601B0AC
:10101000BDE8F08FF0B581B0044600F0D5FB206844
:1010200038B140F2A017C2F2000761683868814207
:1010300004D001B0BDE8F04000F0D0BB024652F849
:10104000541FA14206D000BF31B10A468968A142AF
:10105000FAD10832A16811600025A560426D90F8B0
:101060003D1000E0926862B1D368002BFAD0D368DB
:10107000CEB293F83C30B342F4D9D16891F83C1029
:10108000F0E7C9B207F052FD25606560E06800280E
:10109000CFD0E568284604F0DDFF01202060686DB0
:1010A0006C65C4E90150284603F090F9386895F85A
:1010B0003C4090F83C5000F091FBAC429CBF01B02A
:1010C000F0BD01B0BDE8F04000F006BCB0B504468C
:1010D00000F07AFB206838B140F2A011C2F20001A2
:1010E00060680968884203D0BDE8B04000F076BB74
:1010F000206901382061256900F070FB002D18BFC0
:10110000B0BD2046BDE8B040FFF784BF82B080B5D7
:1011100082B0CDE9042304AA019200F005F802B0E0
:10112000BDE8804002B070472DE9F04381B098B32C
:1011300040F63C09C2F200090646D9F8000058B34F
:1011400040F2B418C2F20008D8F8000020B31446E8
:101150000D4600F03DFC18B1D8F80000FFF7BEFEC8
:1011600040F21017C2F20007384640F8046B8021A5
:101170002A46234600F0CEF9D9F80000394632223B
:1011800001F04EFE00F024FC30B1D8F8000001B0B0
:10119000BDE8F043FFF73EBF01B0BDE8F0830000BB
:1011A000044600F003F8204600F040F92DE9F04332
:1011B00087B005464CF68010C2F2010005602C682D
:1011C000ECB14AF27311C0F6000173A275A3204678
:1011D00002F006F876A1204602F002F800F020FAAC
:1011E00076A120466E2201F0FBFF4FF47A777AA1B8
:1011F000204620224023009701F0F2FF01E000F09A
:101200000FFAA868002818BF80472E686EB14AF20E
:10121000E011C0F60001304601F0E2FF01F092FF5C
:101220007CA1304601F0DCFF01E001F08BFFFFF70D
:101230008BFB40B136B14AF2B911C0F6000130461D
:1012400001F0CEFFFEE7B6B14AF2EC01C0F60001B4
:1012500030462022022301F0C3FFFFF759FC4AF277
:1012600038114AF26922C0F60001C0F60002304689
:1012700001F0B6FF01E0FFF74BFC01F04DFA3EB183
:101280004AF21511C0F600013046082201F0A8FF0D
:10129000286840F6D801C2F200010860286840F6CC
:1012A000DC09C2F20009C9F80000286840F6D40839
:1012B000C2F20008C8F800004FF4007000F000FC13
:1012C00007464FF4007000F0FBFB002F18BF00280A
:1012D00009D13EB14AF25211C0F60001304601F088
:1012E0007FFF00BFFEE7296805900020069003A855
:1012F000CDE9031702F0C6FD48B13EB14AF21C2108
:10130000C0F60001304601F06BFF00BFFEE702F0BF
:10131000AFFDC9F8000002F0ABFDC8F800009EB1B7
:101320004AF20221C0F60001304601F059FF686818
:10133000029002A8FFF786FD4AF23821C0F60001AC
:10134000304601F04DFF04E06868029002A8FFF704
:1013500079FD1E204FF4006102F0E0FC36B14AF244
:101360005021C0F60001304601F03AFFE86800283D
:1013700018BF80476CB14AF2CE11C0F6000120467A
:1013800001F02EFF4AF2EF11C0F60001204601F0F5
:1013900027FF07B0BDE8F0834A616E20323120326A
:1013A0003032360032313A30383A353800000000F9
:1013B0005B4B65726E656C5D0D0A00002020486510
:1013C00061703A20256C75204B4220617661696C12
:1013D00061626C650D0A00002020536368656475C6
:1013E0006C65723A202564207072696F7269746945
:1013F00065732C202564207461736B20736C6F748B
:10140000732C20256C7520487A207469636B0D0A53
:101410000000000020205B4F4B5D20492F4F2073C0
:10142000747265616D730D0A000000000568044662
:101430001DB11CA1284601F0D3FE2069002818BF69
:1014400080471DB31FA1284601F0CAFE49F66F363A
:10145000C0F600062846314601F0C2FE4AF28E1759
:10146000C0F600072846394601F0BAFE1BA12846FF
:1014700001F0B6FE1FA1284601F0B2FE284639460B
:1014800001F0AEFE2846314601F0AAFE616944F241
:101490009950C0F60000002918BF084602F0C0FAB3
:1014A000FEE700BF0D0A4372656174696E672073C1
:1014B000797374656D207461736B732E2E2E0D0A13
:1014C0000000000053797374656D207461736B7351
:1014D00020637265617465640D0A00005374617263
:1014E00074696E67207363686564756C65722E2E0F
:1014F0002E0D0A00456E746572696E67206D756CFD
:1015000074697461736B696E67206D6F64650D0A31
:1015100000000000002818BF002902D14FF0FF3062
:101520007047B0B504460D4607F0C6FD61190022AC
:1015300001F8012CB0BD0000002808BF7047B0B50D
:1015400086B040F29815C2F20005044606202978BC
:101550008DF80400002054F8042CCDE90204002981
:1015600018BF22F00042CDE9042001A803F0A8F83A
:10157000287854F8041C002818BF4FF00040084297
:101580003BD0A4F108052A68BABB21EA000044F860
:10159000040C00F019F940F2A811C2F2000154F84D
:1015A000040C0A68104408604CF68411C2F2010170
:1015B00008460968A942FBD342688318AB4201D0B0
:1015C000296004E054F8041C054611444160696830
:1015D00002686B1893420BD140F29C13C2F20003D5
:1015E0001B689A4204D0D2E900231944C5E90021BE
:1015F000A84218BF056000F0F1F806B0BDE8B040A1
:1016000070470000B0B500F0DFF84CF69010C2F261
:101610000100D0E9004500F0E1F820462946B0BDC0
:1016200040F29410C2F200000021016040F2A010CC
:10163000C2F20000016041F2F800C2F20000016055
:1016400006F0C0BA2DE9F04186B0044600F0BCF8BF
:1016500040F29C11C2F20001086840F2981EC2F2EA
:10166000000E08B10CBB6FE04CF6841041F2801202
:10167000C2F20100C2F200020023C0E9002302F519
:10168000DC3040F8083D43604BF2F873C0F20103D0
:101690000860C2E9000340F2A810C2F20000036033
:1016A00001208EF80000002C4ED0B4F1FF3F03DC87
:1016B0009EF80000002847D124F0070040F2A81C43
:1016C00000F110026007C2F2000CDCF8000008BF55
:1016D00004F10802824237D84CF68416C2F20106A1
:1016E0003568686890420DD22B685BB158689042AB
:1016F0000BD200BF1E461B6833B158683546904276
:10170000F8D303E02B4601E033462E460D68AB428A
:101710001AD01D4655F8088B871A112FC6F800807D
:1017200040D34CF684169818C2F2010647605A60FE
:10173000324636688642FBD3D2F8048002EB0807B3
:10174000874219D006601BE0002524B11DB9022094
:10175000214600F015F900F041F805208DF804004D
:101760000020CDE90205CDE9044001A802F0A8FF60
:10177000284606B0BDE8F0814068404450601046FD
:10178000D0F80480176800EB0806BE4207D109684C
:101790008F4204D0D7E900164644C0E900168242C1
:1017A00018BF10605868DCF800109EF80020091A75
:1017B000CCF800100021002A18BF40F00040C3E917
:1017C0000010002CC2D1C6E74CF6A410C2F20100F2
:1017D00072B6016801310160704700004CF6A41038
:1017E000C2F20100016839B1016801390160006885
:1017F000002818BF704762B67047000070B520F02F
:1018000007006FF0020340F8443D4FF0807C21F068
:1018100001014FF001364FF0000E4FF012334FF040
:1018200003344FF00235C0E90926C0E90F1C4FF020
:1018300005314FF00432C0E90B54C0E90D3E4FF0C2
:10184000113C4FF0103E4FF009334FF00634C0E921
:10185000012100F10C014FF008364FF0073570C13F
:10186000C0E9063EC0F820C070BD00004EF623510E
:10187000CEF20001D1F86500F02240F47000C1F80A
:10188000650040F20400BFF34F8FBFF36F8F01F884
:10189000012C0A70C2F20000006844F6D353C1F272
:1018A0006203A0FB03034FF0FF3000EB9313002013
:1018B000B0EB136F1CBF012070474EF2100CCEF23C
:1018C000000CCCF804300A700721CCF80800CCF8E2
:1018D000001000DF704700004EF60450CEF200000A
:1018E0004FF080510160BFF36F8FBFF34F8F704790
:1018F000002808BF70474EF60450CEF200004FF0AB
:1019000080510160BFF36F8FBFF34F8F70470000AE
:10191000F0B581B00446FFF757FF4FF0FF354CB3E9
:1019200040F2D816C2F200063078072822D840F2DA
:10193000DC1500280746C2F2000518BF012713D0A6
:101940002968A1420BD00021013181424FF00007EC
:1019500038BF012708D255F82120A242F4D1FFF761
:101960003DFF0FB1002507E03078411C45F82040CD
:1019700000253170FFF732FF284601B0F0BD0000AE
:1019800080B586B0013800220328CDE90322CDE9D5
:101990000122059117D8DFE800F0020D04080820A5
:1019A00004E009208DF804000AE009208DF8040005
:1019B000029105E007208DF80400002004910390B7
:1019C00001A802F07DFE06B080BD000006F0A2B8BE
:1019D00040F6CA00C2F20000007870472DE9F047D7
:1019E00086B004F0ABFB4CF69011C2F20101D1E9D4
:1019F00000230546501C43F10002C1E90002D1E971
:101A000000892E68002716B340F2A01AC2F2000A1D
:101A1000002400BFD6E90401B8EB000079EB010017
:101A200016D32846314606F049F83046C6E9047711
:101A300002F0CCFCDAF8000096F83C1090F83C007C
:101A4000814288BF01242E68002EE3D100E00024EB
:101A500001A80597CDE90377CDE9017702F030FEC3
:101A6000204606B0BDE8F087FEE70000EFF30980EE
:101A7000BFF36F8F114A1368996B884202DA1846D8
:101A800001F052FB1EF0100F08BF20ED108A7146C6
:101A900020E9F20F1860FFF799FF084A12681068F2
:101AA000B0E8F20F8E461EF0100F08BFB0EC108A9F
:101AB00080F30988BFF36F8F70470000A0010020FA
:101AC00070B505460820FFF7BDFD98B10446042017
:101AD000FFF7B8FD98B106462846012101F0C0F88D
:101AE000306048B149F6A021C0F600012046C0E9A7
:101AF000001670BD002070BD3046FFF71DFD20466A
:101B0000FFF71AFD002070BDB0B5002808BFB0BDBA
:101B1000446864B121680546084601F0CFF82046C4
:101B2000FFF70AFD2846BDE8B040FFF705BDB0BD90
:101B30007047000010B54FF4406005F0A7FE40F676
:101B4000014005F0A3FE41F20E1005F09FFE40F2A9
:101B50000044C4F20204204601210022042304F0C0
:101B60005FFB204600210222042304F083FBA4F53E
:101B7000806000210022012304F052FB002000219C
:101B800006F04EFF01200021012204F079FA062020
:101B900005210022BDE8104004F0FCBF40F2C8104F
:101BA000C2F2000070470000B0B54FF4406005F08D
:101BB0006DFE41F2041005F069FE41F20004C4F22A
:101BC000010404F57045284607214FF4007204F023
:101BD000EBFA284607214FF4806204F0E5FA284624
:101BE000022101224FF4C06304F01AFB28460021B1
:101BF00002224FF4C063002504F03CFB204607F0AE
:101C0000A3F920464FF4E13107F036F920460421CC
:101C100007F02CFA2046082107F02EFA252005218E
:101C2000002204F0B7FF204640F2053107F0FEF92C
:101C3000204607F0EDF940F2C81049F69421C2F2AF
:101C40000000C0F60001C0E90015B0BD10B540F6B7
:101C5000C404C2F200042068002818BF10BD802010
:101C6000002101F07BF9206010BD000070470000EA
:101C700046F66560C0F60000FFF74ABE2DE9F04168
:101C800084B004460D20012542A600BFC0B200F07A
:101C90006BFA705D0135172DF8D14AF29C250021B1
:101CA0002020C0F6000500BFC0B24E1C6F1800F027
:101CB0005BFA7878082E3146F6D1A0690DF1040858
:101CC000002147F6300208F10A05CDF80B10029109
:101CD00001928DF80E1068B14AF2A522C0F60002FA
:101CE000294600BF00F00F03D35C000901F8013D55
:101CF000F8D104E0302008F109018DF80D000878D2
:101D000038B14F1EC0B200F02FFAB8780137002862
:101D1000F8D10D20012725A6C0B200F025FAF05D0C
:101D200001370B2FF8D16069002147F63002CDF85A
:101D30000B10029101928DF80E1058B14AF2A521B4
:101D4000C0F6000100F00F028A5C000905F8012DC1
:101D5000F8D104E0302008F109058DF80D0028784D
:101D600038B16C1EC0B200F0FFF9A0780134002831
:101D7000F8D14AF26F250D200124C0F6000500BFFE
:101D8000C0B200F0F1F9285D0134132CF8D100BF86
:101D9000FEE700BF0D0A2D2D2D204841524420465C
:101DA00041554C54202D2D2D0D0A00000D0A2020E8
:101DB0004C5220203D20000010B584B04FF48050DC
:101DC00005F064FD4FF0804006F022FF6C4620468F
:101DD00007F020F840F20400C2F2000000684DF65F
:101DE0008361C4F21B31A0FB01014FF0FF3000EB17
:101DF0009141ADF800100021CDF802100290ADF82D
:101E000006108DF80C104FF08040214606F0AAFF16
:101E10004FF0804006F0A0FF04B010BD80B582B046
:101E20004FF4407004F00AFF05F0F0FB102005F0BD
:101E30003BFC102005F048FC012833D1002005F0C0
:101E400069FB4FF4004005F079FB4FF4A05005F01A
:101E50006BFB4FF0070C4FF4800008214FF4A87281
:101E60000223CDF800C005F041FD182005F01CFC50
:101E7000192005F029FC012816D1022005F078FD73
:101E800005F080FD0828FBD1FFF7F0FEFFF78CFE80
:101E9000FFF792FFFFF74EFE02B0BDE88040FFF76C
:101EA00047BE00BFFEE700BFFEE7000030BFFDE712
:101EB00070B584B004460D2001251EA6C0B200F006
:101EC00053F9705D01351A2DF8D12020012520A687
:101ED000C0B200F049F9705D0135132DF8D147F615
:101EE00030000021019001A8CDF80B1002918DF86F
:101EF0000E106CB14AF2A5210A30C0F6000100BFF5
:101F000004F00F028A5C240900F8012DF8D103E0E7
:101F1000302109308DF80D10017841B1441E00BF09
:101F2000C8B200F021F9A17801340029F8D104B039
:101F300070BD00BF0D0A2D2D2D204D414C4C4F433F
:101F4000204641494C4544202D2D2D0D0A0000000E
:101F500020205265717565737465642053697A65D4
:101F60003A2000004EF60C50CEF20000BFF34F8F27
:101F70000168042201F4E061C0F2FA5211430160E9
:101F8000BFF34F8FFEE7000070B584B004460D200C
:101F9000012535A6C0B200F0E7F8705D01351B2DB4
:101FA000F8D14AF28C2620200125C0F6000600BF99
:101FB000C0B200F0D9F8705D0135102DF8D147F6A8
:101FC00030000021019001A8CDF80B1002918DF88E
:101FD0000E106CB14AF2A5210A30C0F6000122466B
:101FE00002F00F03CB5C120900F8013DF8D103E0C9
:101FF000302109308DF80D10017841B1451E00BF28
:10200000C8B200F0B1F8A97801350029F8D14AF238
:102010006F260D200125C0F6000600BFC0B200F0FB
:10202000A3F8705D0135132DF8D14AF282260D20F8
:102030000125C0F6000600BFC0B200F095F8705D43
:1020400001350A2DF8D1204601F028FC017849B16C
:10205000441E00BFC8B200F087F8A17801340029FF
:10206000F8D100BFFEE700BF0D0A2D2D2D205354DF
:1020700041434B204F564552464C4F57202D2D2D56
:102080000D0A000070B584B004460D2001252EA66F
:10209000C0B200F069F8705D0135162DF8D14AF232
:1020A0008C2620200125C0F6000600BFC0B200F03B
:1020B0005BF8705D0135102DF8D147F63000002136
:1020C000019001A8CDF80B1002918DF80E106CB1A3
:1020D0004AF2A5210A30C0F60001224602F00F03A1
:1020E000CB5C120900F8013DF8D103E03021093042
:1020F0008DF80D10017841B1451E00BFC8B200F047
:1021000033F8A97801350029F8D14AF282260D204A
:102110000125C0F6000600BFC0B200F025F8705DD2
:1021200001350A2DF8D1204601F0B8FB017841B104
:10213000441E00BFC8B200F017F8A178013400298E
:10214000F8D1012004B070BD0D0A2D2D2D20544171
:10215000534B2045584954202D2D2D0D0A000000C9
:102160004FF0804006F052BDB0B582B0044641F257
:1021700000054FF6FF70C4F20105C0F20F0000BF6A
:1021800001902846072106F049FF20B9019810B1B7
:1021900001980138F4E72846214602B0BDE8B04076
:1021A00006F0CEBE2DE9F04F81B000284FF6FF7942
:1021B00000F008810C46002900F0048140F2A42AB6
:1021C000C2F2000A8046DAF80000DDF830B01E46A0
:1021D0001746FEF783FE40F2A8210020C2F200015C
:1021E0000D18AA6822B1A830B0F5A86FF8D1002563
:1021F000002D5CD02846A821FEF73FF840F20800E9
:10220000C2F2000001884A1C0280298001F03AFBDA
:1022100040F2A021C2F200010A6832B19168814205
:1022200004D0D2F8A420002AF8D10022002A4FF0CE
:10223000000114BF12880022686000206A8085F8BF
:1022400021B085F8221085F82010C5E90384C5E97E
:102250000576E96105EBC002013010285162118555
:10226000F8D14FF40070FFF72BFC04464FF40070D8
:10227000FFF726FC002C18BF00282BD124B10546FF
:102280002046FFF741FC2846002818BFFFF73CFC1A
:10229000DAF80000FEF7BEFEFEF734FC002800F07E
:1022A00091804AF2E401C0F600015CA286E0DAF80F
:1022B0000000FEF7AFFEFEF725FC0228C0F082808A
:1022C0004AF2E4014AF2A702C0F60001C0F6000299
:1022D000022074E0E86268630A9840F201112985DF
:1022E00040F2012182B247F2F9200B9F298629870B
:1022F000C0F6000041462B466C62009701F0E2F800
:1023000048B3696AA860044600F0B4FFE96A204651
:1023100000F0CAFF696B204600F092FF40F2A02156
:10232000C2F200010868B5F80090C5F8A400DAF818
:1023300000000D60FEF76EFEFEF7E4FB042841D3BB
:102340004AF2E4010FFA89F7C0F6000120A2042046
:102350004346009734E0FEF7D5FB04280ED3EB6824
:10236000B5F900704AF2E4014AF28502C0F60001B4
:10237000C0F6000204200097FEF7ECFB686A28B163
:1023800095F82810012908BFFFF7BEFBE86A28B1BD
:1023900095F83010012908BFFFF7B6FB2846A821A1
:1023A000FDF76BFFDAF80000FEF734FEFEF7AAFB3C
:1023B00040B14AF2E401C0F600010EA201204346FA
:1023C000FEF7C8FB0FFA89F001B0BDE8F08F00BF3F
:1023D000437265617465642070726F636573732006
:1023E0002725732720776974682050494420256485
:1023F0002E0000004661696C656420746F20637272
:1024000065617465207461736B20666F72207072F1
:102410006F6365737320272573272E004661696CEF
:10242000656420746F2063726561746520706970E3
:10243000657320666F722070726F636573732027F7
:102440002573272E0000000082B0044601F01AFA1E
:1024500040F2A426C2F20006316805460846FEF79F
:102460003DFD40F2A020C2F2000007683FB100BF6E
:10247000B868A84204D0D7F8A470002FF8D100277C
:10248000A7B10120FC6187F82000FEF73BFB042880
:102490000CD3FB68B7F900704AF2E401C0F6000102
:1024A00006A20420CDE90074FEF754FB3068FEF765
:1024B000B1FD002001F028F9FEE700BF50726F6304
:1024C00065737320272573272028504944202564ED
:1024D000292065786974696E67207769746820734C
:1024E00074617475732025642E000000002808BFF5
:1024F0007047F0B581B040F2A427C2F2000704464D
:1025000038680D46FEF7EAFC40F2A020C2F2000057
:1025100006683EB130462946A04718B1D6F8A460F7
:10252000002EF7D1386801B0BDE8F040FEF772BD6B
:10253000002808BF70472DE9F04381B040F2A4287D
:10254000C2F200080446D8F800000D46FEF7C6FCAB
:1025500040F2F079C2F20009D9F8000070B140F2FF
:10256000F4770026C2F2000757F826002946A04754
:1025700020B1D9F8000001368642F5D3D8F8000022
:1025800001B0BDE8F043FEF745BD000070B539B3BA
:1025900040F2A426C2F20006054630680C46FEF75B
:1025A0009DFC40F2A020C2F20000006838B1A9B240
:1025B00002888A4204D0D0F8A4000028F8D1002074
:1025C00038B190F82010012903D1C069206000249F
:1025D00001E04FF0FF343068FEF71CFD204670BD6F
:1025E0004FF0FF3070BD000070B50F2984BF002090
:1025F00070BD40F2A426C2F20006054630680C46C3
:10260000FEF76CFC40F2A020C2F20000006840B16E
:10261000A9B200BF02888A4204D0D0F8A4000028E2
:10262000F8D1002000281ABF00EBC400446A00243F
:102630003068FEF7EFFC204670BD0000B0B540F2F8
:10264000A425C2F20005296804460846FEF746FCA8
:1026500040F2A020C2F20000006840B1A1B200BF69
:1026600002888A4204D0D0F8A4000028F8D10020C3
:10267000002814BFC46800242868FEF7CBFC20465D
:10268000B0BD0000B0B540F2A425C2F20005296833
:1026900004460846FEF722FC40F2A020C2F20000E9
:1026A000006840B1A1B200BF02888A4204D0D0F8CD
:1026B000A4000028F8D10020002814BF90F8224080
:1026C0004FF0FF342868FEF7A5FC2046B0BD00009F
:1026D000B0B540F2A425C2F20005296804460846B8
:1026E000FEF7FCFB40F2A020C2F20000006840B1FF
:1026F000A1B200BF02888A4204D0D0F8A40000280A
:10270000F8D10020002814BF846800242868FEF750
:1027100081FC2046B0BD000080B5FEF7CBFB40F247
:10272000A421C2F20001086040B340F2A820C2F226
:1027300000004FF4A861FDF7A0FD40F2F470C2F272
:1027400000004021FDF799FD40F2A020C2F20000F8
:102750000021016040F2F070C2F20000016040F21E
:102760000800C2F200000121018047F2BD00C0F65E
:102770000000FFF7CDF810B1FEE700BFFEE7FEF75F
:10278000C1F9032838BF80BD4AF2E401C0F6000158
:1027900002A20320BDE88040FEF7DCB950726F63EF
:1027A000657373206D616E6167656D656E7420730E
:1027B00065727669636520696E697469616C697AAE
:1027C00065642E002DE9F04182B0804601F05AF890
:1027D00040F2A426C2F20006316805460846FEF71C
:1027E0007DFB40F2A027C2F20007386838B100BF75
:1027F0008168A94204D0D0F8A4000028F8D10020B4
:10280000002814BF048800243068FEF703FC1FFA78
:1028100088F5A54242D03068FEF760FB3F6837B1CB
:102820003888A84204D0D7F8A470002FF8D1002728
:10283000B7B14FF0FF30F8610120BD6887F8200084
:10284000FEF760F904280CD3FB684AF2E401C0F6F5
:1028500000011AA20420CDF80080FEF77BF900E009
:1028600000253068FEF7D6FB35B1284600F04CFF56
:10287000002002B0BDE8F081FEF744F9022808D339
:102880004AF2E401C0F6000114A202204346FEF71A
:1028900061F94FF0FF3002B0BDE8F081FEF732F988
:1028A000042808D34AF2E401C0F6000113A2042070
:1028B0004346FEF74FF90020FFF7C6FD4B696C6CED
:1028C000696E672070726F636573732027257327A5
:1028D0002028504944202564292E00004B696C6C47
:1028E000206661696C65643A205049442025642063
:1028F0006E6F7420666F756E642E000050726F6389
:10290000657373202564206B696C6C696E67206940
:102910007473656C662C2063616C6C696E672065EE
:102920007869742830292E00D0B10168C1B181685E
:10293000B1B110B540F2F072C2F200021168102974
:1029400011D3FEF7DFF8022807D34AF2E401C0F6FC
:10295000000118A20220FEF7FDF84FF0FF3010BD75
:102960004FF0FF3070474B1C136040F2F472C2F21C
:102970000002044642F82100FEF7C4F8042808D3F8
:1029800023684AF2E401C0F6000103A20420FEF726
:10299000E1F8002010BD00BF52656769737465726D
:1029A00065642070726F6772616D20272573272E12
:1029B0000000000050726F6772616D207265676978
:1029C000737472792066756C6C2E000070B582B0DD
:1029D00040F2A425C2F20005296804460846FEF725
:1029E0007DFA40F2A020C2F2000006683EB1A0B21B
:1029F0003188814204D0D6F8A460002EF8D1002698
:102A0000DEB196F82200012817D1B06800F09CFFD3
:102A1000002486F82240FEF775F804281CD3F368DA
:102A2000B6F900604AF2E401C0F600010DA20420EC
:102A30000096FEF78FF800240EE0FEF763F80228F8
:102A400008D34AF2E401C0F600010EA20220234698
:102A5000FEF780F84FF0FF342868FEF7DBFA2046D7
:102A600002B070BD526573756D65642070726F63DE
:102A70006573732027257327202850494420256437
:102A8000292E0000526573756D65206661696C655D
:102A9000643A20504944202564206E6F7420666F8C
:102AA000756E64206F72206E6F742073757370651D
:102AB0006E6465642E0000002DE9F04F83B09946E6
:102AC000924605468B4688B340F2A428C2F200081D
:102AD000D8F80000FEF702FA40F2F070C2F20000EF
:102AE00006686EB140F2F477C2F200073C682946EE
:102AF0002068FDF7E0FB20B1013E07F10407F5D1A6
:102B00000024D8F80000FEF785FA94B12068A16887
:102B100002224FF48053CDE900325A465346CDF895
:102B20000890FFF73FFB03B0BDE8F08F0024002CB6
:102B3000ECD14FF6FF74FDF7E5FF022808D34AF207
:102B4000E401C0F6000104A202202B46FEF702F8C1
:102B500020B203B0BDE8F08F50726F6772616D20D4
:102B600027257327206E6F7420666F756E642E00A4
:102B700070B582B040F2A425C2F20005296804466F
:102B80000846FEF7ABF940F2A020C2F2000006684A
:102B90003EB1A0B23188814204D0D6F8A460002EA4
:102BA000F8D1002616B196F8220078B1FDF7AAFFF9
:102BB000022808D34AF2E401C0F600011BA2022059
:102BC0002346FDF7C7FF4FF0FF3416E0B06800F072
:102BD0004FFF012086F82200FDF794FF04280BD355
:102BE000F368B6F900604AF2E401C0F6000106A2FB
:102BF00004200096FDF7AEFF00242868FEF70AFACD
:102C0000204602B070BD00BF53757370656E646579
:102C1000642070726F6365737320272573272028E3
:102C2000504944202564292E00000000537573701C
:102C3000656E64206661696C65643A205049442081
:102C40002564206E6F7420666F756E64206F72202D
:102C50006E6F742072756E6E696E672E00000000D4
:102C600070B5054600284FF000001FD00C46002923
:102C700008BF70BD2020FEF7E5FCC0B104FB05F1E4
:102C800006460846FEF7DEFC01463046316081B15B
:102C90000022C0E90154C260C0E90411183003F0F9
:102CA000BBF906F11C0003F0B7F9304670BD0020F7
:102CB00070BDFEF741FC002070BD0000002808BF79
:102CC0007047B0B50446FEF77FFD00BFA06970B144
:102CD000A569284603F0BEF9284601F077FBF5E721
:102CE000E569284603F0B6F9284601F06FFBE06974
:102CF0000028F5D12068FEF71FFC2046FEF71CFCDB
:102D0000BDE8B040FEF76ABD2DE9F041002840D093
:102D1000164605460F46FEF757FDE868E0B3AA6879
:102D200069693846FDF782FA95E80E006869EF6830
:102D300002FB03121844904238BF0146781E6961B5
:102D4000E860A869F8B1AC69204603F083F9D4E9DA
:102D50000401084307D003F0F1F9214604F0AEFE68
:102D60000020C4E90400204601F030FB40F2A0102E
:102D7000C2F20000006894F83C1090F83C008142D8
:102D800088BFFEF7A9FD0124FEF728FD2046BDE817
:102D9000F0810020BDE8F081002E4FF00004F3D058
:102DA00040F2A018C2F20008D8F8000090F83C00E9
:102DB00003F0CAF9D8F8001004F080FED8F800102B
:102DC000032081F8300005F11C008F6503F028F91D
:102DD000D8F80000711C046144610AD0FEF712FCAF
:102DE0008219D8F8000041F10001C0E9042101F086
:102DF00021FBFEF7F3FCFEF76FFDD8F80000006D35
:102E000050B1FEF7E1FCD8F8000003F023F9D8F840
:102E1000000000248465B7E70120BDE8F0810000D0
:102E20002DE9F04F81B000284FF0000600F08080BF
:102E300040F2A01517460446884600F11809C2F270
:102E400000054FF0030A02F1010B07E0FEF7C6FC94
:102E5000FEF742FD2868006D002861D1FEF7B4FC42
:102E6000E06920BB6068E168814245D3002F5CD0F7
:102E7000286890F83C0003F067F9296804F01EFE0A
:102E80002968484681F830A003F0CAF82868BBF1E9
:102E9000000F06614661D9D0FEF7B4FBC21928685D
:102EA00041F10001C0E9042101F0C4FACEE7E6696E
:102EB000304603F0CFF8D6E90401084307D003F009
:102EC0003DF9314604F0FAFD0020C6E90400B06D7A
:102ED000A2684146FDF7AAF90020B065304601F02E
:102EE00075FA286896F83C1090F83C00814288BF3B
:102EF000FEF7F2FC012619E0A26820694146FDF7C1
:102F000095F994E80E002069E76802FB0312184463
:102F1000904238BF0146781C2161E060012605E03F
:102F2000FEF752FC286803F095F80026FEF756FCE1
:102F3000304601B0BDE8F08F074800680068B0E88F
:102F4000F20F8E4680F30988BFF36F8F022080F363
:102F50001488BFF36F8F7047A0010020B0B50446FE
:102F600000284FF0000011D00D46A1420ED80C20D1
:102F7000FEF768FB002808BFB0BD00F1080105603E
:102F800044600446084603F047F82046B0BD000000
:102F9000002804BF00207047B0B50446FEF714FCBB
:102FA000A06828B3A468204603F054F8D4E90401CB
:102FB000084307D003F0C2F8214604F07FFD00204B
:102FC000C4E90400204601F001FA40F2A010C2F268
:102FD0000000006894F83C4090F83C50FEF7FEFB7F
:102FE000AC429CBF0120B0BDFEF776FC0120B0BD15
:102FF00020686168884206D2206801302060FEF7B0
:10300000EDFB0120B0BDFEF7E9FB0020B0BD0000E4
:1030100070B500284FF0000418BF002901D12046E8
:1030200070BD054600200E460860FEF7CDFBA8687F
:1030300000B3AC68204603F00DF8D4E9040108435E
:1030400007D003F07BF8214604F038FD0020C4E9E6
:103050000400204601F0BAF940F2A010C2F20000CC
:10306000006894F83C1090F83C000124814288BF2D
:10307000346009E028686968884204D2286801241D
:103080000130286000E00024FEF7A8FB204670BD58
:10309000F0B581B060B106460D46FEF795FB30688D
:1030A00050B13068012401383060FEF797FB00E032
:1030B0000024204601B0F0BD002D4FF00004F4D0F4
:1030C00040F2A017C2F20007386890F83C0003F005
:1030D0003BF8396804F0F2FC3968032081F83000CD
:1030E00006F1080002F09CFF3868691C0461446125
:1030F00009D0FEF787FA4219386841F10001C0E9AA
:10310000042101F097F9FEF769FBFEF7E5FB38684B
:10311000006D30B1FEF758FB386802F09BFF0024C9
:10312000C3E70124C5E700000446FEF751FC20B1C7
:1031300001202146FEF724FC02E02046FEF724FF92
:10314000FEE7000080B540F6E840C2F200004FF410
:103150008061FDF792F848F2D170C0F60000BDE83A
:103160008040FEF7D5BB000080B5002808BF00F006
:1031700089FB40F6E8420021C2F200025358834224
:1031800005D01031B1F5806FF8D1002000E0501863
:1031900040F6D801C2F20001002818BF011D0868DE
:1031A00080BD000080B5002808BF00F06BFB40F632
:1031B000E8420021C2F200025358834205D0103188
:1031C000B1F5806FF8D1002000E0501840F6DC0126
:1031D000C2F20001002818BF00F10801086880BD94
:1031E00082B070B5A2B00D460446CDE9262326ABC9
:1031F00002A880212A46019305F05EFF6CB10128E8
:103200000BDB216849B14D683DB1064602A9204655
:1032100032464FF0FF33A847304622B0BDE8704039
:1032200002B0704750B1D0F800C0BCF1000F05D01B
:10323000DCF800C0BCF1000F00D0604700207047F0
:1032400010B500280C4608BF00F01CFB40F6E84211
:103250000021C2F2000200BF5358834205D0103152
:10326000B1F5806FF8D1002000E05018002818BF99
:10327000C46010BD10B500280C4608BF00F002FB6A
:1032800040F6E8420021C2F2000200BF53588342D8
:1032900005D01031B1F5806FF8D1002000E0501852
:1032A000002818BF446010BD10B500280C4608BFA8
:1032B00000F0E8FA40F6E8420021C2F2000200BF46
:1032C0005358834205D01031B1F5806FF8D10020FA
:1032D00000E05018002818BF846010BD50B1D0F82D
:1032E00000C0BCF1000F05D0DCF804C0BCF1000F39
:1032F00000D060470020704710B54CF6A414C2F20D
:10330000010472B6206801302060FEF767FB216877
:1033100029B1216801392160216801B962B600280C
:1033200008BF10BD4EF60450CEF200004FF08051A1
:103330000160BFF36F8FBFF34F8F10BD81B04EF6AA
:103340008851CEF200010A6843F6080042F4700288
:10335000C4F202000A6050F8081C41F0010140F874
:10336000081C00BF50F8081C8907FBD5016841F014
:103370008001016000210091009A4F2A06D800BF09
:10338000009A01320092009A502AF9D3026842F062
:1033900090020260009100994F2905D800990131EF
:1033A000009100995029F9D301684FF6FF7221F07E
:1033B0000301016050F8081CCFF6F662114040F896
:1033C000081C50F8081C21F4802140F8081C00213A
:1033D0000160026843F21002C2F2004240F8042C7D
:1033E000416050F8081C41F4803140F8081C4FF649
:1033F000FF7100BF50F8082C920303D40029A1F1FB
:103400000101F7D150F8081C8903FBD5826B47F204
:10341000000142F08052C4F2000182630A6842F463
:1034200040420A6002680260026842F400420260A0
:10343000026842F4A052026045F20842C0F24072B3
:1034400040F8042C50F8082C42F0807240F8082C08
:1034500050F8082C9201FBD50A6842F480320A60C9
:103460004A68D203FCD50A6842F400320A6000BF01
:103470004A689203FCD5016821F0030101600168EC
:1034800041F00201016000BF01680907FCD501B0ED
:1034900070470000B0B540F2A012C2F200021568F9
:1034A000002818BF05464DB10C46FEF78DF9286A75
:1034B000A0432862FEF792F90020B0BD4FF0FF3024
:1034C000B0BD00002DE9F04F8BB000284FF0000494
:1034D00000F0E280DDF85090B9F11F0F00F2DC80BF
:1034E000804668201E4615468A46FEF7ABF800283F
:1034F00000F0BE80AF0004463846FEF7A3F800286F
:1035000070D083460820FEF79DF8002867D0CDE9EB
:103510000070C0E90086FEF757F94CF6981CC2F21D
:10352000010CDCE9001201EA0203013320D0D3438D
:1035300093FAA3F3B3FA83F3C84303F1200790FA95
:10354000A0FE002818BFBEFA8EF70123C7F12000A5
:1035500023FA00F0B7F1200E58BF03FA0EF003FA79
:1035600007F358BF002310431943CCE9001001E0D2
:103570004FF0FF37FEF732F9781C30D0C4E90186EE
:10358000002604F12C00C4E90466A66126772662B1
:10359000C4E9096602F040FDBAF1000FC4E90D7BF1
:1035A00084F83C9084F83D90C4E91066C4E9126642
:1035B000C4E91466A6651BD09AF800105046B1B154
:1035C000FCF772FE00F101084046FEF73BF80646A4
:1035D00070B1304651464246FCF728FE08E0584696
:1035E000FDF7AAFF2046FDF7A7FF002454E00026C0
:1035F000E6B907AE2AA2304610213B4605F042FD4F
:103600003046FCF751FE471C3846FEF71BF80646CD
:1036100028B107A930463A46FCF708FE05E05846AF
:10362000FDF78AFF2046FDF787FF0EB3E665A4F895
:10363000605025B100995846A522FCF717FE48F6C0
:10364000F121019A0BEB8500C0F60001FEF7D6F8D8
:103650002060FEF7B9F840F29411C2F20001086848
:1036600040B100BF0146006C0028FBD10C6402E0B1
:10367000002411E00C60204600F0A8FEFEF7AEF832
:10368000002002900690CDE9040001208DF808008A
:1036900002A8039401F014F820460BB0BDE8F08FA7
:1036A000556E6E616D65645F256C7500B0B5002860
:1036B00008BFB0BD044640F6CA00C2F20000007860
:1036C00000B3FEF781F840F2A015C2F200052868A9
:1036D00090F83C0002F038FD296804F0EFF9FDF79E
:1036E00091FF0219286841F10001C0E9042102217B
:1036F00080F8301000F09EFEFEF770F8BDE8B04094
:10370000FEF7EAB8B0BD00002DE9F04186B00546ED
:10371000002841F2F80040F2A018C2F20000C2F204
:1037200000080068D8F8004018BF2C4684424FF0CB
:10373000FF3018BF002C02D106B0BDE8F081002098
:1037400001900590CDE903000220676B8DF804001D
:1037500001A8029400F0B4FFFEF736F894F83000A8
:10376000012807D194F83C0002F0EEFC214604F059
:10377000A5F919E094F83000022803D094F830003D
:10378000032811D1D4E90401084304D002F0D6FC87
:10379000214604F093F9206D30B1204602F05AFC26
:1037A00002E000BFFDF736FC606D0028FAD140F260
:1037B0009410C2F200000021034684F8301000BFCC
:1037C0000A46196819B1A14201F14003F8D121B1AB
:1037D000096C002A14BF11640160E06DA66B00281B
:1037E00018BFFDF7A9FE15B30121C7F12002B7F1FB
:1037F000200021FA02F258BF01FA00F201FA07F0A4
:103800004CF69811C2F20101D1E9003758BF0020EF
:1038100027EA020223EA0000C1E900022046FDF780
:103820008BFE3046FDF788FEFDF7D8FF26E000202E
:103830000121C7F12002C8F80000B7F1200021FAE9
:1038400002F258BF01FA00F201FA07F04CF69811A3
:10385000C2F20101D1E9003758BF002027EA020275
:1038600023EA0000C1E900022046FDF765FE30466C
:10387000FDF762FEFDF7B2FFFEF72EF8002006B05E
:10388000BDE8F08140F2A010C2F20000006870476D
:10389000002814BF406B4FF0FF30704740F2A0117A
:1038A000C2F200010968002818BF0146C86D7047C0
:1038B000B0B50446FDF788FF207FC8B194F830000A
:1038C000032815D100202077204600F07FFD40F22C
:1038D000A010C2F20000006894F83C4090F83C5000
:1038E000FDF77CFFAC4205D9FDF7F6FF0020B0BD27
:1038F000FDF774FF0020B0BD002904BF4FF0FF307A
:103900007047B0B5044600200D460860FDF75CFF27
:10391000207FA8B194F83000032811D1002020772F
:10392000204600F053FD40F2A010C2F200000068F3
:1039300094F83C1090F83C00814284BF012028603C
:10394000FDF74CFF0020B0BDB0B5D8B10446FDF77F
:103950003BFF94F83000042815D1204600F036FDD6
:1039600040F2A010C2F20000006894F83C4090F8C9
:103970003C50FDF733FFAC4298BFB0BDBDE8B0404E
:10398000FDF7AABFB0BDBDE8B040FDF727BF0000FE
:10399000B0B5044600284FF0FF301ED00D46002978
:1039A00008BFB0BDFDF710FF206A216D04F12C02A5
:1039B0002843914220620DD1206A616A94F8282040
:1039C0000840411A18BF01219207B0FA80F058BF91
:1039D000410919B1FDF702FF0020B0BD204602F0F9
:1039E00039FBD4E90401084307D002F0A7FB2146C4
:1039F00004F064F80020C4E90400204600F0E6FC6E
:103A000040F2A010C2F20000006894F83C4090F828
:103A10003C50FDF7E3FEAC42DED9FDF75DFFDBE78E
:103A200080B582B0E0B14FF0000C0FA180220023DE
:103A3000CDF800C0FFF746FD41F2F801C2F20001E7
:103A4000086078B140F6CA00C2F20000012101709E
:103A5000FDF7BCFF02B0BDE88040FDF707BF00BF27
:103A6000FEE700BFFEE700BF49444C4500000000F0
:103A7000B0B541F2F80140F2A015C2F20001C2F265
:103A8000000509682C68002818BF04468C4218BF3E
:103A9000002C00D1B0BDFDF797FE94F8300004284B
:103AA00003D1BDE8B040FDF799BE94F8300001287D
:103AB00007D194F83C0002F047FB214603F0FEFFDB
:103AC00015E094F83000022803D094F83000032861
:103AD0000DD1D4E90401084304D002F02FFB2146A4
:103AE00003F0ECFF206D10B1204602F0B3FA042081
:103AF00084F83000FDF772FE2868844218BFB0BD1C
:103B0000BDE8B040FDF7E8BE10B5FDF75DFE40F240
:103B1000A014C2F20004206890F83C0002F014FBEC
:103B2000216803F0CBFF206801210177032180F891
:103B30003010FDF753FEBDE81040FDF7CDBE00008C
:103B40002DE9F04381B020B3914604460F46FDF7BE
:103B50003BFE40F2A018C2F20008D8F800100E6A2E
:103B600016EA04000346A0EB040218BF01235FEA33
:103B70008975B2FA82F248BF5309012B0BD15FEA73
:103B8000497203D50A6A22EA00000862FDF726FEA0
:103B900028E0002646E017B391F83C00C1E9094946
:103BA00002F0D2FAD8F8001003F088FFD8F800101D
:103BB000032081F8300001F12C0002F031FA781C6A
:103BC0000AD0FDF71FFDC219D8F8000041F100012D
:103BD000C0E9042100F02EFC012028B922E0FDF705
:103BE000FDFD00260020E8B1FDF7F8FDFDF774FEAD
:103BF000FDF7EAFDD8F80000016D19B102F02AFACC
:103C0000002608E0066A5FEA497104D5016A06EAFF
:103C1000040291430162D8F800000021C0E90911B3
:103C2000FDF7DCFD304601B0BDE8F08384B040F222
:103C3000B01BC2F2000B0DF104084FF0000A00BFE8
:103C4000FDF7E0FCDBF8002052B1D2E90437C31ADB
:103C5000B9413ABFD2E904120A1A002202E000BFB9
:103C60004FF0FF3241F2E804C2F2000420684146FE
:103C7000FFF74AF8012807D1404603F071FB20689E
:103C800041460022F4E700BFFDF7BCFCDBF8006012
:103C9000002ED5D081460F4607E000BF5946F0619F
:103CA0000E60DBF80060002ECAD0D6E90401B9EB43
:103CB000000077EB0100C3D37168F069CBF8000016
:103CC00086F819A009B130468847307E0028E8D030
:103CD000F068D6E90412401842F10001C6E9040177
:103CE00001207076DBF800000028D7D0D6E9041256
:103CF000D0E90434C91A72EB0401CFD3594600BF8E
:103D0000096851F81C0F0028C9D0D0E90423D6E96E
:103D10000445A21A75EB0302F2D2C0E7F0B581B0F8
:103D200041F2EC05C2F200052A6812B1002001B090
:103D3000F0BD07460C460A200C21FEF791FF41F228
:103D4000E806C2F20006306090B143F62D40C0F69E
:103D5000000009A1224600230097FFF7B3FB0146AC
:103D60000020296009B101B0F0BD3068FEF7A6FF60
:103D70004FF0FF3001B0F0BD54696D65725376634A
:103D800000000000F0B581B0074620201C46164612
:103D90000D46FDF757FC58B10699012D98BF012536
:103DA000C0E9021500210676C0E900744176C161C0
:103DB00001B0F0BD0A46014600284FF0FF301DD08B
:103DC00041F2EC03C2F200031B68002B08BF7047EE
:103DD00080B584B041F2E800C2F200000068002320
:103DE000029101A98DF804300393FFF719F8013807
:103DF00018BF4FF0FF3004B0BDE8804070470000AE
:103E000010B582B041F20004C4F2010440F2053161
:103E1000C0F20501204605F015F928B3204605F04B
:103E20008BF840F6C801C2F200010A8840F6C003D0
:103E3000C2F2000301321B8802F07F029A4213D0C3
:103E40000B8840F64004C2F20004E05440F6C4007F
:103E50000A80C2F2000000210068019101A9FFF769
:103E6000D7F80198FDF744FD02B010BDFEE7000051
:103E700041F2F400C2F200000068002814BF80691B
:103E800000207047014600284FF0FF3008BF704700
:103E900070B582B041F2F405C2F200052A68C2BBD7
:103EA0000868A0B3486890B3886880B374200E4651
:103EB000FDF7C8FB286050B374210446FCF7DDF918
:103EC00096E80F000FC4FCF7F5FF296808614FF46E
:103ED0000070FDF7F5FD2B68D6E90112986100200E
:103EE00019625A62187743F6E5700526C0F600009D
:103EF0000AA14FF480720096FFF7E4FA2A6801469F
:103F000000205161002908BF4FF0FF3001E04FF061
:103F1000FF3002B0BDE87040704700BF56545353A5
:103F2000657276696365000010B541F2F404C2F26F
:103F300000042068002808BF10BD0069FCF7CEFF10
:103F40002468D4E90101206200206162207704F135
:103F500028004921FCF791F92069BDE81040FDF7E0
:103F600059B8000070B541F2F406C2F2000632689A
:103F700092B1054610690C46FCF7B0FF0DB93068E8
:103F800045683068002C056208BF84684462006997
:103F9000FDF740F8002070BD4FF0FF3070BD00000D
:103FA00041F2F401C2F20001096800290EBF4FF08E
:103FB000FF30C86000207047B0B541F2F405C2F28E
:103FC0000005296851B104460869FCF787FF286895
:103FD00004770069FDF71EF80020B0BD4FF0FF30F8
:103FE000B0BD0000A2B041F2F40AC2F2000A0DF125
:103FF000070402AD0FF22838CBA602E00120FFF73C
:1040000055FBDAF800002146006801220023FFF783
:1040100009F9002856D0DAF800000069FCF75EFFC5
:104020009DF80790DAF800B08DF808909BF81C0016
:10403000012805D1DBF820002946012239E000BF24
:10404000B9F1020F25D0B9F11A0F12D0B9F1030F4F
:1040500060D1DBF80C0010B10121FFF799FCDAF810
:104060000070492107F12800FCF707F9386831464C
:104070001EE0DBF80C0010B10421FFF789FCDAF830
:104080000070492107F12800FCF7F7F8386841462D
:104090000EE0DBF80C0010B10821FFF779FCDAF82C
:1040A0000070492107F12800FCF7E7F838689AA169
:1040B00004224FF0FF33FFF711F9DAF8000000692E
:1040C000FCF7A8FFDAF80000406A70B129468022A8
:1040D0000023FFF7A7F840B10246DAF800002946AE
:1040E00000684FF0FF33FFF7F9F8DAF800002946CF
:1040F000806980220023FFF795F800283FF47EAF07
:104100000246DAF80000294600684FF0FF33FFF757
:10411000E5F873E79BF87000022812D0012808D058
:104120000028CAD1B9F11B0F1DD101208BF87000F6
:10413000C3E7B9F15B0F14BF002002208BF87000B9
:10414000BBE7B9F1430F50D0B9F1440F5CD1DBF8B4
:104150006C00012858DB01384AF28101CBF86C0071
:10416000C0F6000149E0FCF75DF8006810F80900AE
:1041700010F03E0F4ED0DBF868203E2A9DDCDBF8C5
:104180006C300BF12807F918481CD21AFCF74EF8CE
:10419000DBF86C0007F80090DBE91A12DBF800008E
:1041A0004B1C511CCBE91A31B9189A1A4FF0FF3346
:1041B000FFF794F8DAF80000D0E91A1291427FF77D
:1041C0007CAF002700684AF28101C0F6000103229B
:1041D0004FF0FF33FFF782F8DAF800000137D0E93B
:1041E0001A12891A8F42EDDB67E7DBE91A10884261
:1041F0000ADA01304EA1CBF86C00DBF80000032294
:104200004FF0FF33FFF76AF8DAF80000002180F87A
:10421000701052E7B9F10C0F06DCB9F1080F2BD082
:10422000B9F10A0F07D048E7B9F17F0F24D0B9F1EF
:104230000D0F7FF442AFDBF8000040A102224FF0E7
:10424000FF33FFF74BF8DAF800104FF0FF33086A3E
:104250008A6E2831FFF742F8DAF8000038A1006AC8
:1042600001224FF0FF33FFF739F8DAF80000482158
:104270002830FCF702F820E7DBF86C20012AFFF673
:104280001CAF0BF12807DBF86830B918481E9A1AE2
:10429000FBF7CCFFDBE91A01012201380139CBE938
:1042A0001A0100213954DBF8000022A14FF0FF333E
:1042B000FFF714F8DAF80010D1E91A230868194456
:1042C0002831D21A4FF0FF33FFF708F8DAF8000070
:1042D00019A1006801224FF0FF33FEF7FFFFDAF863
:1042E0000000D0E91A129142FFF6E7AE4FF0FF3717
:1042F00000684AF28101C0F6000103224FF0FF334B
:10430000FEF7ECFFDAF800000137D0E91A12891A3B
:104310008F42EDDBD1E600BF5E420D0A00000000D7
:104320005E5A0D0A000000005E430D0A0000000006
:104330001B5B430008000000200000000D0A000085
:104340000A00000049F6C37449F6796840F2B817CC
:10435000C0F60004C0F6000811A6C2F2000702E091
:104360003868FFF7A5FAFFF7CFFBFCF7CBFB042873
:1043700004D3042021464246FCF7ECFB052500BF90
:104380004FF47A70FFF792F9013DF9D1FCF7BAFBCF
:104390000328E5D9042021463246FCF7DBFBDFE7A2
:1043A000E5B7A5E4BD9CE5AE8CE688902C20E594AD
:1043B000A4E98692205461736B204220E5B9B6E9E6
:1043C000878DE696B0E7AD89E5BE850038B390F8F5
:1043D0003C101F2988BF704710B50446FDF7F4F95B
:1043E0004CF6A01194F83C30C2F201014FF0010CE0
:1043F0000A6820460CFA03F422430A60002141F2C5
:10440000FC0E4164C2F2000E5EF8232042B100BFF0
:104410001146526C002AFBD101F1440302E07047BF
:104420000EEB83031860816480F830C0BDE8104053
:10443000FDF7D4B9B0B540F2A41EC2F2000EDEF80A
:10444000001011B3D0E9045CD1E90424AA1A7CEB72
:10445000040209D20022C0E911120029034618BF44
:104460008B64CEF80000B0BD0A46496C29B1D1E991
:1044700004432C1B7CEB0303F6D24164516C0029EE
:1044800018BF886450648264B0BD41640023014653
:104490008B64CEF80000B0BD49F6C97449F679685E
:1044A00040F2AC17C0F60004C0F6000811A6C2F234
:1044B000000702E03868FFF7FBF9FFF725FBFCF780
:1044C00021FB042804D3042021464246FCF742FB8A
:1044D000032500BF4FF47A70FFF7E8F8013DF9D1EA
:1044E000FCF710FB0328E5D9042021463246FCF7EF
:1044F00031FBDFE7E5B7A5E4BD9CE5AE8CE688902F
:104500002C20E594A4E98692205461736B2041200D
:10451000E5B9B6E9878DE696B0E7AD89E5BE8500D9
:1045200040F20044C4F202042046042101F076FE69
:104530004FF47A70FFF7BAF8F6E7000010B540F2D2
:104540000044C4F2020400BF2046042101F066FECC
:1045500001204FF47A710522FFF7F2FAC007F3D079
:104560002046042101F058FE0020FEF71BFE02A1A8
:10457000FEF736FE002010BD5B626C696E6B795DE4
:10458000204C4544204F46462C2065786974696E5E
:10459000672E2E2E0A000000FEE70000B0B582B0A4
:1045A0006420FFF783F80020FEF7FCFD27A1FEF74B
:1045B00017FE0020FEF7F6FD2EA1FEF711FE4AF2CF
:1045C0000900C0F6000001AA012100230190FEF7B6
:1045D00073FA04460020FEF7E5FD002C29DD2FA12B
:1045E0002246FEF7FDFD20460021FDF7FDFF0546B2
:1045F00020460121FDF7F8FF25B1014610B12846FC
:10460000FFF7B0FC0F204FF0FF310522FFF798FABB
:10461000FFF78AFC0020FEF7C5FD49F6F931C0F628
:1046200000012246FEF7DCFD0020FFF76DF802B026
:10463000B0BD49F67231C0F60001FEF7D1FD00BFF2
:104640004FF47A70FFF732F8FAE700BF5B426F6F02
:104650007473747261705D2053797374656D206931
:1046600073206E6F7720696E207573657273706149
:1046700063650A005B426F6F7473747261705D20D2
:104680004C61756E6368696E6720696E697420702D
:10469000726F636573732E2E2E0A00005B426F6F7C
:1046A0007473747261705D20696E697420737461D3
:1046B000727465642028504944202564290A00004A
:1046C000F0B581B040F2D815C2F20005297891B159
:1046D00040F2DC1704460026C2F2000704E000BFE7
:1046E00028780136864206D257F826100029F7D0DE
:1046F00020468847F4E701B0F0BD000070B549F6E8
:10470000CF750124C0F6000517A606E04FF47A70B5
:10471000FEF7CCFF0134062C0AD0FCF7F3F904288D
:10472000F4D30420294632462346FCF713FAEDE77A
:10473000FCF7E8F9032807D949F6CF71C0F6000164
:1047400010A20420FCF706FAFDF73EF840F2C41070
:10475000C2F2000000210160FDF740F80020BDE832
:104760007040FEF7D1BF00BFE6ADA3E59CA8E8BF4F
:1047700090E8A18C2C20E7ACAC20256420E6ACA10D
:1047800000000000E8BF90E8A18C35E6ACA1E59000
:104790008EE588A0E999A4E887AAE5B7B12E0000C4
:1047A00070B502291ED15068FBF7B1FD00281EDD4F
:1047B00006B204463046FDF741FF20B305463046B9
:1047C000FDF760FF012823D13046FEF7FFF80646CB
:1047D0000020FEF7E7FC2EB325A12246FEF700FDE0
:1047E000002070BD0020FEF7DDFC13A106E00020D4
:1047F000FEF7D8FC4AF29551C0F60001FEF7F0FC36
:104800004FF0FF3070BD0020FEF7CCFC21A103E08B
:104810000020FEF7C7FC0DA12246FEF7E1FC4FF099
:10482000FF3070BD4AF28A41C0F6000122462B4695
:10483000FEF7D6FC002070BD55736167653A2062B3
:1048400067203C7069643E0A0000000062673A20FD
:1048500070726F6365737320256420697320616CC7
:1048600072656164792072756E6E696E672E0A00DA
:1048700062673A206661696C656420746F207265B6
:1048800073756D652070726F636573732025642E78
:104890000A00000062673A2070726F6365737320CC
:1048A0006E6F7420666F756E643A2025640A00008E
:1048B0002DE9F0478CB0012919DC0020FEF772FCCD
:1048C0004AF6D301C0F60001FEF78AFC0020FEF78D
:1048D00069FC4AF65211C0F60001FEF781FC002087
:1048E000FEF760FC4AF67311C0F6000117E0546849
:1048F00057A12046FBF7DFFCC0B157A12046FBF7CC
:10490000DAFC05460020FEF74DFC002D4CD054A1EA
:104910002246FEF765FC0020FEF744FC58A1FEF796
:104920005FFC4FF0FF300CB0BDE8F08702A8FCF749
:104930000FFA0020FEF736FC4AF6B201C0F600017D
:10494000FEF74EFC0020FEF72DFC029A4AF61911E4
:10495000C0F60001FEF744FC0020FEF723FC039A9A
:104960004AF6FE01C0F60001FEF73AFC0020FEF711
:1049700019FC049A4AF63511C0F60001FEF730FC26
:104980000020FEF70FFCDDE9021264238A1A5A4365
:10499000B2FBF1F24AF63601C0F60001FEF720FC48
:1049A00000200CB0BDE8F0874AF6C401C0F6000153
:1049B000FEF716FC0020FEF7F5FB4AF69C174AF6B8
:1049C00091124AF69613C0F6000735A1C0F6000210
:1049D000C0F600030097FEF703FC0020FEF7E2FBA1
:1049E00034A1FEF7FDFB0020FCF7CCF90028D7D05E
:1049F0004AF6A91849F664294AF6EC0A044602ADBB
:104A0000C0F60008C0F60009C0F6000A06E000BFC4
:104A10002046FCF7B7F904460028C1D020462946B5
:104A2000FCF7BAF90028F3D19DF810004746042896
:104A300098BF59F820700020FEF7B4FB039A9DF848
:104A4000116051463B460096FEF7CAFBE0E700BF07
:104A500068656170000000007461736B7300000092
:104A60004572726F723A20556E6B6E6F776E20745E
:104A7000617267657420272573272E0A00000000E5
:104A8000417661696C61626C6520746172676574FE
:104A9000733A20686561702C207461736B730A002F
:104AA000252D31367320252D31307320252D367379
:104AB0000A0000002D2D2D2D2D2D2D2D2D2D2D2DD0
:104AC0002D2D2D2D2D2D2D2D2D2D2D2D2D2D2D2D16
:104AD0002D2D2D2D2D2D2D2D2D2D2D2D2D2D0A0056
:104AE00070B502291FD15068FBF711FC00281FDDAB
:104AF00004B205462046FDF7A1FD06460020FEF75C
:104B000051FB0EB319A13246FEF76AFB2046FDF7B2
:104B1000B9FD012802D12046FDF758FF204601F0DB
:104B20009DFE002070BD0020FEF73CFB0AA106E0C0
:104B30000020FEF737FB4AF29551C0F60001FEF760
:104B40004FFB4FF0FF3070BD09A12A46FEF748FB2E
:104B50004FF0FF3070BD00BF55736167653A206646
:104B600067203C7069643E0A0000000025730A005B
:104B700066673A2070726F63657373206E6F74207E
:104B8000666F756E643A2025640A000010B504460D
:104B90000020FEF707FB06A1FEF722FB46F6FD61AB
:104BA000C0F600012046002203F00EF9002010BDDF
:104BB000417661696C61626C6520436F6D6D616EF9
:104BC00064733A0A0000000080B50020FEF7EAFA9C
:104BD00008A1FEF705FB0020FEF7E4FA0EA1FEF7A0
:104BE000FFFA46F65170C0F600000021FDF77EFC8A
:104BF000002080BD50494420207C20505049442052
:104C0000207C205354415455532020202020202024
:104C10007C204E414D450A002D2D2D2D2D7C2D2D16
:104C20002D2D2D2D2D7C2D2D2D2D2D2D2D2D2D2D65
:104C30002D2D2D2D7C2D2D2D2D2D2D2D2D2D2D2D55
:104C40002D2D2D2D2D0A000070B5012934DC0020FA
:104C5000FEF7A8FA4AF29661C0F60001FEF7C0FA24
:104C60000020FEF79FFA4AF28C61C0F60001FEF7C1
:104C7000B7FA0020FEF796FA4AF2CD41C0F60001DD
:104C8000FEF7AEFA0020FEF78DFA4AF29541C0F623
:104C90000001FEF7A5FA0020FEF784FA4AF2E76168
:104CA000C0F60001FEF79CFA0020FEF77BFA4AF2FC
:104CB0000C71C0F6000187E0022908D003295DD1FC
:104CC000506801782D297BD1451C082004E04AF268
:104CD000EF75C0F6000504201058FBF718FB0028FC
:104CE00066DD04467FA12846FBF7E5FA00284DD093
:104CF0007DA12846FBF7DFFA002847D07CA1284693
:104D0000FBF7D9FA002841D04AF2EF71C0F6000152
:104D10002846FBF7D0FA002864D077A12846FBF795
:104D2000CAFA00285ED076A12846FBF7C4FA00280C
:104D300000F0918074A12846FBF7BDFA002800F02E
:104D40008A8073A12846FBF7B6FA002800F0A080FD
:104D500071A12846FBF7AFFA002800F099800020E7
:104D6000FEF720FA4AF21151C0F600012A46FEF77A
:104D700037FA0020FEF716FA69A125E00020FEF7B9
:104D800011FA4AF24D61C0F600011DE020B2FDF7B4
:104D900019FD05460020FEF705FAD5B14AF2F55196
:104DA000C0F600012246FEF71BFA4FF0FF3070BD3F
:104DB0000020FEF7F7F94AF29551C0F6000103E032
:104DC0000020FEF7EFF93CA1FEF70AFA4FF0FF30A2
:104DD00070BD4AF22E51C0F600012246FEF700FADD
:104DE000002070BD26B23046FDF772FC0546002853
:104DF0003ED028460121FEF7CBFD0020FEF7D2F978
:104E00004AF24B51C0F600012246FEF7E9F94FF491
:104E10007A70FEF74BFC3046FDF734FC022812D0C6
:104E20003046FDF72FFC01300DD00020FEF7BAF917
:104E30004AF26A51C0F600012246FEF7D1F9304627
:104E4000FDF7C0FC1EE00020FEF7ACF94AF26961F4
:104E5000C0F6000113E020B2FDF78AFE05460020EF
:104E6000FEF7A0F90DB34AF2AA51C0F6000199E786
:104E70000020FEF797F94AF22F61C0F600012246A2
:104E8000FEF7AEF90DB1002070BD4FF0FF3070BDE0
:104E900020B2FDF79BFD05460020FEF783F94DB1DA
:104EA0004AF2D051C0F600017CE74AF21861C0F620
:104EB000000192E724A190E74572726F723A20498F
:104EC0006E76616C6964207369676E616C20666FD1
:104ED000726D61742E20557365202D5349474E41E4
:104EE0004C2E0A00390000004B494C4C00000000D9
:104EF0005349474B494C4C005349475445524D0088
:104F000053544F500000000053494753544F500032
:104F1000434F4E5400000000534947434F4E540046
:104F2000537570706F72746564207369676E616C1D
:104F3000733A20392C205445524D2C2053544F5055
:104F40002C20434F4E540A0050726F6365737320D8
:104F5000256420726573756D65642E0A000000007B
:104F60002DE9F04186B001290ADC0020FEF71AF98C
:104F700039A1FEF735F90020FEF714F93DA150E004
:104F80004AF28644C0F60004131D8A1E029402AD44
:104F9000022A28BF02220427281D07EB82020E46A0
:104FA0001946FBF743F9204631462A460023FDF710
:104FB00083FD002831DD044601F0D2F800210646C9
:104FC0004FF00008FDF710FB054630460121FDF7C4
:104FD0000BFB064620460021FDF706FB0746204650
:104FE0000121FDF701FB27B1014610B13846FEF75C
:104FF000B9FF02204FF0FF310522FEF7A1FD284640
:105000003146FEF7AFFF01A92046CDF80480FDF739
:10501000BDFA019806B0BDE8F0810020FEF7C2F8A5
:1050200003A1FEF7DDF84FF0FF3006B0BDE8F081D8
:105030004572726F723A204661696C656420746FC4
:10504000207374617274206C6F672070726F677266
:10505000616D2E0A0000000055736167653A206C8F
:105060006F67203C7461673E205B6C6576656C5DA4
:105070000A0000004C6576656C733A206572726FA9
:10508000722C207761726E2C20696E666F2C206402
:1050900065627567202864656661756C743A206482
:1050A00065627567290A0000B0B502290FD15468FE
:1050B00034A12046FBF7FFF890B133A12046FBF75F
:1050C000FAF8D8B10020FEF76DF830A103E0002017
:1050D000FEF768F825A1FEF783F84FF0FF30B0BD6A
:1050E00040F28425C2F200052868A8B10020FEF72E
:1050F00059F84AF2B831C0F6000133E040F2842496
:10510000C2F200042068C0B1FBF7E4FDE8B1002062
:10511000FEF748F827A125E0FEF7AAFE04210022A9
:10512000FBF7B4FC044628600020FEF73BF8ACB166
:105130004AF29831C0F6000114E00020FEF732F880
:105140004AF20441C0F600010CE000202060FEF7A6
:1051500029F84AF2E331C0F6000103E04AF22A419D
:10516000C0F60001FEF73CF80020B0BD5573616742
:10517000653A206C6F67616C6C203C6F6E7C6F666B
:10518000663E0A006F6E00006F666600496E7661CB
:105190006C696420617267756D656E742E2055733D
:1051A0006520276F6E27206F7220276F6666272E77
:1051B0000A0000004572726F723A204661696C65A0
:1051C0006420746F2064697361626C6520676C6F22
:1051D00062616C206C6F67206D6F6E69746F7269AD
:1051E0006E672E0A0000000010B5022912D1506827
:1051F000FBF78DF8042827D8C1B204460846FBF710
:1052000097FD0020FDF7CEFF2EA12246FDF7E8FF17
:10521000002010BD0020FDF7C5FF11A1FDF7E0FF44
:105220000020FDF7BFFF15A1FDF7DAFF0020FDF715
:10523000B9FF0446FBF766FC02461DA12046FDF7B8
:10524000CFFF4FF0FF3010BD0020FDF7ABFF4AF25B
:105250006331C0F60001FDF7C3FF4FF0FF3010BD12
:1052600055736167653A206C6F676C6576656C2075
:105270003C6C6576656C3E0A000000004C65766506
:105280006C733A20303D4E4F4E452C20313D4552F7
:10529000524F522C20323D5741524E2C20333D4923
:1052A0004E464F2C20343D44454255470A000000ED
:1052B00043757272656E74206C6576656C3A202554
:1052C000640A0000476C6F62616C206C6F67206C31
:1052D0006576656C2073657420746F2025642E0AD2
:1052E0000000000080B50020FDF75CFF05A1FDF780
:1052F00077FF46F62970C0F600000021FDF718F987
:10530000002080BD417661696C61626C65207072BD
:105310006F6772616D733A0A000000002DE9F04F6B
:10532000ADF6442DFCF750FA00200026FBF72AFDCD
:1053300078B1002710AC00BF21467E1C0546FBF764
:105340002BFD2846FBF71EFD18B128343F2F3746AA
:10535000F2D3FCF743FA0020FDF724FF0446FCF7E4
:1053600051F94FF47A72A0FB020301FB02310023D2
:10537000FAF726FF02460B463EA12046FDF730FF16
:105380000020FDF70FFF47A14BA24EA34FA542A758
:10539000CDE90053CDE902214DA155A31022049778
:1053A000FDF71EFF0020FDF7FDFE54A1FDF718FFDD
:1053B000002E4BD006EB8600C000079010A84AF2E2
:1053C000573900F10C084FF0000AC0F600090DAD86
:1053D00008AE00BF10AC04EB0A0B9BF809709BF8F9
:1053E0000A3028460C214A46009703F04BFEDBF8B2
:1053F000103058F80A70304614214A46009703F0DE
:1054000041FE0020FDF7CEFE54F80A10DBF80470D0
:1054100004460846FEF73CFA9BF8081038A252F8FA
:105420002110DBE906238DE823004AF21531CDE98E
:1054300004232046C0F6000110223B460396FDF7E8
:10544000CFFE07980AF1280A5045C3D108A8FBF7F8
:105450007FFC0020FDF7A6FE08AF8CCF4AF2D821D2
:10546000C0F600010097FDF7BBFE00200DF6442DAD
:10547000BDE8F08F0A4D7952544F53204D6F6E693D
:10548000746F722028557074696D653A20256C6CB4
:1054900075206D73290A000052756E74696D652858
:1054A00075732900537461636B2028557365642FED
:1054B00053697A65290000005072696F28422F43B2
:1054C0002900000053746174650000004944000025
:1054D000252D2A7320252D347320252D3873202562
:1054E0002D31307320252D3138732025730A0000AB
:1054F0005461736B204E616D650000002D2D0A0014
:1055000048A300085DA300084FA3000840A30008BB
:1055100036A3000880B50020FDF744FE04A1FDF786
:105520005FFE6420FEF7C2F8FCF71CFD002080BD82
:1055300053797374656D207265626F6F74696E67FD
:105540002E2E2E0A000000002DE9F04381B0012923
:105550001FDC0020FDF726FE4AF2B361C0F6000111
:10556000FDF73EFE0020FDF71DFE4AF23071C0F649
:105570000001FDF735FE0020FDF714FE4AF27071C0
:10558000C0F60001FDF72CFE4FF0FF3001B0BDE882
:10559000F08350680D4625A11646FAF78CFE80462A
:1055A00018B101274FF0000909E0022D04D10020B5
:1055B000FDF7F8FD30A1E5E702274FF0010906EB02
:1055C000850050F8040C1CA1FAF775FE04467842D9
:1055D000002C08BFF843411956F8275006EB870204
:1055E00028464B46FDF768FA012803DB54B101F069
:1055F00035F917E00020FDF7D5FD10A12A46FDF78B
:10560000EFFD0FE006460020FDF7CCFD32462B46AD
:10561000B8F1000F0EBF13A14AF28A41C0F6000193
:10562000FDF7DEFD002001B0BDE8F0832D2D64659F
:105630007461636800000000260000004572726F0C
:10564000723A204661696C656420746F20737461DE
:1056500072742070726F6772616D20272573272E18
:105660000A0000005B25645D2025732028646165C5
:105670006D6F6E2920260A004572726F723A204DB6
:10568000697373696E672070726F6772616D206EE7
:10569000616D65206166746572202D2D646574618D
:1056A00063682E0A000000002DE9F04F91B0002041
:1056B000FDF778FD51A1FDF793FDFEF7E3F8FEF746
:1056C0006FFC4CF6CD444AF64D090DF11008CCF6AE
:1056D000CC44C0F6000910E00020FDF763FD49F658
:1056E000A741C0F60001FDF77BFD01204FF47A7160
:1056F0000522FEF725FAC00773D10020FDF752FD01
:1057000049F6A641C0F60001FDF76AFD0EA8FBF7B9
:105710001FFB0020FDF746FD0EAF8CCF43A1009785
:10572000FDF75EFD0020FDF73DFD4AF66D05C0F674
:1057300000052946FDF754FD0020FDF733FD4AF62C
:105740009C11C0F60001009144A14AF691124AF65C
:105750009613019143A1C0F60002C0F600033DA7D5
:105760000297FDF73DFD0020FDF71CFD2946FDF7E2
:1057700037FD0020FBF706FB0028ADD082461BE07A
:10578000DDE907010C9A471AA2FB04230020DE087A
:10579000FDF708FD9DF81910059A079DCDE9001742
:1057A00049465B4603960295FDF71AFD5046FBF706
:1057B000E9FA824600288FD050464146FBF7ECFAC2
:1057C0000028F3D19DF818004AF6A91B0428C0F65A
:1057D000000BD5D849F67821C0F6000151F820B069
:1057E000CEE70020FDF7DEFC4AF69701C0F6000187
:1057F000FDF7F6FC002011B0BDE8F08F4D79525452
:105800004F532053797374656D204D6F6E69746FBB
:1058100072202D205072657373204374726C2B4379
:1058200020746F20657869740A0A00004865617009
:105830003A20546F74616C3D25752C204672656565
:105840003D25752C204D696E467265653D25750AAE
:105850000000000043505525000000005354414310
:105860004B000000252D31327320252D3873202563
:105870002D357320252D397320252D36730A000010
:105880002DE9F0475AB340F6C40840F6C00640F68A
:10589000400A994615460F460024C2F20008C2F29B
:1058A0000006C2F2000A00BFD8F800004946FDF722
:1058B000EFFB012810D1FBF787FF30881AF80000B2
:1058C00038553088013000F07F003080FBF786FFCC
:1058D0000134A542E8D12C462046BDE8F0870020DF
:1058E000BDE8F0872DE9F041904672B341F2000621
:1058F0000D460024C4F20106285D0A2810D100BF1D
:105900003046072103F08AFB0028F9D030460D21EC
:1059100003F016FB3046062103F080FB0028F9D087
:105920002F5D00BF3046072103F078FB0028F9D037
:105930003046394603F004FB3046062103F06EFB87
:105940000028F9D001344445D6D14046BDE8F08165
:1059500084B04AF2450440F2EC77C0F600040FF23E
:105960004809C2F2000702AE0FF24C08FBF7CAF872
:10597000042804D3042021464A46FBF7EBF8386894
:1059800031464FF0FF32FDF7BFF90128EED1FBF7AA
:10599000B9F80428EAD3DDE902350420214642465D
:1059A0000095FBF7D7F8E1E7E7AD89E5BE85E4BAF6
:1059B000A7E593812E2E2E00E68EA5E694B6E58807
:1059C000B0E4BAA7E5938120494420256C752C20CA
:1059D000E695B0E68DAE3A20256C750070B582B0C4
:1059E00048F2CD530024C5A0C0F6000341F288312F
:1059F00000220094FEF7C6F940F6CC05C2F200057D
:105A000046F6B9532860C1A0C0F6000342F21071F7
:105A100001220094FEF7B6F90146286840F28C2472
:105A2000C2F20004216010B10021FEF7C3F9206822
:105A300010B10021FEF7BEF9032008210324FDF771
:105A40000FF940F2EC71C2F20001086088B345F62C
:105A500051100225C0F60000B0A14FF4807200235F
:105A60000095FDF72FFD40F2D011C2F20001086051
:105A700047F26140C0F60000ABA14FF480720023F2
:105A80000094FDF71FFD40F2E871C2F200010860CA
:105A900046F27D400725C0F60000A6A14FF48072B3
:105AA00000230095FDF70EFD40F20421C2F2000133
:105AB0000860022002210225FDF750FA40F29021F1
:105AC000C2F20001086098B346F6C97449F65A71EB
:105AD000C0F60004C0F6000120464FF480720B4669
